{
  "contractName": "ZltoStorage",
  "abi": [
    {
      "constant": true,
      "inputs": [],
      "name": "owner",
      "outputs": [
        {
          "name": "",
          "type": "address"
        }
      ],
      "payable": false,
      "stateMutability": "view",
      "type": "function"
    },
    {
      "constant": true,
      "inputs": [
        {
          "name": "",
          "type": "bytes32"
        }
      ],
      "name": "hashesById",
      "outputs": [
        {
          "name": "",
          "type": "bytes32"
        }
      ],
      "payable": false,
      "stateMutability": "view",
      "type": "function"
    },
    {
      "inputs": [],
      "payable": false,
      "stateMutability": "nonpayable",
      "type": "constructor"
    },
    {
      "anonymous": false,
      "inputs": [
        {
          "indexed": false,
          "name": "id",
          "type": "bytes32"
        },
        {
          "indexed": false,
          "name": "documentHash",
          "type": "bytes32"
        }
      ],
      "name": "DocumentAdded",
      "type": "event"
    },
    {
      "constant": false,
      "inputs": [],
      "name": "ProofOfExistence",
      "outputs": [],
      "payable": false,
      "stateMutability": "nonpayable",
      "type": "function"
    },
    {
      "constant": false,
      "inputs": [
        {
          "name": "id",
          "type": "bytes32"
        },
        {
          "name": "documentHash",
          "type": "bytes32"
        }
      ],
      "name": "notarizeHash",
      "outputs": [
        {
          "name": "",
          "type": "bool"
        }
      ],
      "payable": false,
      "stateMutability": "nonpayable",
      "type": "function"
    },
    {
      "constant": false,
      "inputs": [
        {
          "name": "idArray",
          "type": "bytes32[]"
        },
        {
          "name": "hashArray",
          "type": "bytes32[]"
        }
      ],
      "name": "notarizeHashes",
      "outputs": [
        {
          "name": "",
          "type": "bool"
        }
      ],
      "payable": false,
      "stateMutability": "nonpayable",
      "type": "function"
    },
    {
      "constant": true,
      "inputs": [
        {
          "name": "id",
          "type": "bytes32"
        },
        {
          "name": "documentHash",
          "type": "bytes32"
        }
      ],
      "name": "doesHashExist",
      "outputs": [
        {
          "name": "",
          "type": "bool"
        }
      ],
      "payable": false,
      "stateMutability": "view",
      "type": "function"
    }
  ],
  "bytecode": "0x608060405234801561001057600080fd5b50336000806101000a81548173ffffffffffffffffffffffffffffffffffffffff021916908373ffffffffffffffffffffffffffffffffffffffff160217905550610675806100606000396000f300608060405260043610610078576000357c0100000000000000000000000000000000000000000000000000000000900463ffffffff16806323e2b23e1461007d5780633c034d66146100d45780638da5cb5b146101955780639801cb8e146101ec578063a4417aa614610203578063dbeaf9561461025a575b600080fd5b34801561008957600080fd5b506100ba600480360381019080803560001916906020019092919080356000191690602001909291905050506102a7565b604051808215151515815260200191505060405180910390f35b3480156100e057600080fd5b5061017b60048036038101908080359060200190820180359060200190808060200260200160405190810160405280939291908181526020018383602002808284378201915050505050509192919290803590602001908201803590602001908080602002602001604051908101604052809392919081815260200183836020028082843782019150505050505091929192905050506103dc565b604051808215151515815260200191505060405180910390f35b3480156101a157600080fd5b506101aa61059a565b604051808273ffffffffffffffffffffffffffffffffffffffff1673ffffffffffffffffffffffffffffffffffffffff16815260200191505060405180910390f35b3480156101f857600080fd5b506102016105bf565b005b34801561020f57600080fd5b5061024060048036038101908080356000191690602001909291908035600019169060200190929190505050610601565b604051808215151515815260200191505060405180910390f35b34801561026657600080fd5b506102896004803603810190808035600019169060200190929190505050610631565b60405180826000191660001916815260200191505060405180910390f35b60008060009054906101000a900473ffffffffffffffffffffffffffffffffffffffff1673ffffffffffffffffffffffffffffffffffffffff163373ffffffffffffffffffffffffffffffffffffffff1614151561030457600080fd5b6000809054906101000a900473ffffffffffffffffffffffffffffffffffffffff1673ffffffffffffffffffffffffffffffffffffffff163373ffffffffffffffffffffffffffffffffffffffff1614151561035f57600080fd5b8160016000856000191660001916815260200190815260200160002081600019169055507f1b9d4f039318ae0f0d9651ec9261427078653ce8e7f6128c7e8937582f1a3970838360405180836000191660001916815260200182600019166000191681526020019250505060405180910390a16001905092915050565b6000806000809054906101000a900473ffffffffffffffffffffffffffffffffffffffff1673ffffffffffffffffffffffffffffffffffffffff163373ffffffffffffffffffffffffffffffffffffffff1614151561043a57600080fd5b6000809054906101000a900473ffffffffffffffffffffffffffffffffffffffff1673ffffffffffffffffffffffffffffffffffffffff163373ffffffffffffffffffffffffffffffffffffffff1614151561049557600080fd5b825184511415156104a557600080fd5b600090505b835181101561058f5782818151811015156104c157fe5b906020019060200201516001600086848151811015156104dd57fe5b906020019060200201516000191660001916815260200190815260200160002081600019169055507f1b9d4f039318ae0f0d9651ec9261427078653ce8e7f6128c7e8937582f1a3970848281518110151561053457fe5b90602001906020020151848381518110151561054c57fe5b9060200190602002015160405180836000191660001916815260200182600019166000191681526020019250505060405180910390a180806001019150506104aa565b600191505092915050565b6000809054906101000a900473ffffffffffffffffffffffffffffffffffffffff1681565b336000806101000a81548173ffffffffffffffffffffffffffffffffffffffff021916908373ffffffffffffffffffffffffffffffffffffffff160217905550565b60008160001916600160008560001916600019168152602001908152602001600020546000191614905092915050565b600160205280600052604060002060009150905054815600a165627a7a723058202f857d4235a0245b9866d13519685ba670f2f983476b019396de1d2e56aba7160029",
  "source": "pragma solidity ^0.4.25;\n\ncontract ZltoStorage {\n    constructor() public {\n        owner = msg.sender;\n    }\n    \n    event DocumentAdded(\n        bytes32 id,\n        bytes32 documentHash\n    );\n\n    address public owner;\n  \n    mapping (bytes32 => bytes32) public hashesById;\n\n    modifier onlyOwner() {\n        require(msg.sender == owner);\n        _;\n    }\n\n    modifier noHashExistsYet(bytes32 id) {\n        require(hashesById[id] == \"\");\n        _;\n    }\n\n    function ProofOfExistence() public {\n        owner = msg.sender;\n    }\n\n    function notarizeHash(bytes32 id, bytes32 documentHash) onlyOwner public returns(bool){\n        require(msg.sender == owner);\n        hashesById[id] = documentHash;\n        emit DocumentAdded(id, documentHash);\n\n        return true;\n    }\n\n    function notarizeHashes(bytes32[] idArray, bytes32[] hashArray) onlyOwner public returns(bool) {\n        require(msg.sender == owner);\n        require(idArray.length == hashArray.length);\n\n        for (uint i=0; i<idArray.length; i++) {\n            hashesById[idArray[i]] = hashArray[i];\n\n            emit DocumentAdded(idArray[i], hashArray[i]);\n        }\n        return true;\n    }\n\n    function doesHashExist(bytes32 id, bytes32 documentHash) public view returns (bool) {\n        return hashesById[id] == documentHash;\n    }\n}\n",
  "sourcePath": "/Users/Mac/Documents/COMP992/zlto_node/eth/zlto_truffle/contracts/Zlto.sol",
  "compiler": {
    "name": "solc",
    "version": "0.4.25+commit.59dbf8f1.Emscripten.clang"
  },
  "schemaVersion": "3.0.0-beta.1",
  "updatedAt": "2018-10-23T19:44:15.638Z"
}